:020000040800F2
:10000000FCFF00207D1A0000751A0000751A000020
:10001000751A0000751A0000751A0000751A0000A4
:10002000751A0000751A0000751A0000751A000094
:10003000751A0000751A0000751A0000751A000084
:10004000751A0000751A0000751A0000751A000074
:10005000751A0000751A0000751A0000751A000064
:10006000751A0000751A0000751A0000751A000054
:10007000751A0000751A0000751A0000751A000044
:10008000751A0000751A0000751A0000751A000034
:10009000751A0000751A0000751A0000751A000024
:1000A000751A0000751A0000751A0000751A000014
:1000B000751A0000751A0000751A0000751A000004
:1000C000751A0000751A0000751A0000751A0000F4
:1000D000751A0000751A0000751A0000751A0000E4
:1000E000751A0000751A0000751A0000751A0000D4
:1000F000751A0000751A0000751A0000751A0000C4
:10010000751A0000751A0000751A0000751A0000B3
:10011000751A0000751A0000751A0000751A0000A3
:10012000751A0000751A0000751A0000751A000093
:10013000751A0000751A0000751A0000751A000083
:10014000751A0000751A0000751A0000751A000073
:1001500001480068704700BFAC00002081B0CDF8B6
:1001600000E081B2034800F009F9DDF800E001B0D9
:10017000704700BF0038004081B0CDF800E081B288
:10018000034800F0FBF8DDF800E001B0704700BF65
:10019000003C004081B0194900EA010108460022F4
:1001A0000EE0042022E0082020E010201EE02020A5
:1001B0001CE040201AE0802018E040F2001015E01A
:1001C0000F498842EDD00F498842ECD00E49884251
:1001D000EBD00E498842EAD00D498842E9D00D495A
:1001E0008842E8D00C498842E7D010460B4909689C
:1001F00041EA000209490A6001B0704700FCFFFFB4
:1002000000080140000C01400010014000140140B2
:1002100000180140001C014000200140181002405D
:1002200082B0CDF800E0034619460191FFF790FF38
:1002300040F2E83100FB01F201990A601F49097898
:10024000C1F30311C8B21E4909180878C0B21A1DBB
:100250001968C140116019490988C1F3022188B2A7
:10026000174909180878C0B203F20802191D096875
:10027000C140116011490988C1F3C22188B21049F7
:1002800009180878C0B203F20C02191D0968C140B0
:1002900011600A490988C1F3813188B209490918F6
:1002A0000978C8B203F2100203F20C010968B1FB2D
:1002B000F0F11160DDF800E002B070470410024078
:1002C000841E0000540C000081B0CDF800E081B223
:1002D000034800F053F8DDF800E001B0704700BFBC
:1002E0000030014083B0CDF800E000F0FF031A09B0
:1002F000104603F00F02134614E0194A02921FE061
:10030000184A02921CE0184A029219E0174A029217
:1003100016E0174A029213E0164A029210E0164ABB
:1003200002920DE00028E8D00128E9D00228EAD0A6
:100330000328EBD00428ECD00528EDD00628EED019
:10034000012212B29A40ADF8042002980A46BDF884
:10035000041000F0DDF9DDF800E003B0704700BFE5
:1003600000080140000C0140001001400014014051
:1003700000180140001C01400020014081B000F243
:100380000C02116000F208021368C3F3000202B904
:10039000F8E700F20C02126890B201B07047FFFF5C
:1003A00081B0ADF800100146BDF800000B68C3F342
:1003B000C01202B9FAE70A1D106001B07047FFFFD2
:1003C00081B0CDF800E081B20348FFF7D7FFDDF838
:1003D00000E001B0704700BF0038004081B000234A
:1003E0000360CB009BB242EA030304689BB244EA79
:1003F00003030360051D13141C462B6864F382037A
:100400002B6000F21C0500242B6864F3CB232B60C7
:100410000124036864F38613036001B07047FFFF93
:1004200083B0CDF800E0ADF808100190BDF80830B9
:10043000BDF80820521EADF808204BB10020064C34
:100440002468A047019A1070019A521C0192EDE7AE
:10045000DDF800E003B07047A000002081B0CDF8C7
:1004600000E081B20348FFF789FFDDF800E001B04A
:10047000704700BF0030014089B0CDF800E08346EE
:1004800098B28C46BDF824100A9E04ACADF8041056
:10049000ADF808002046FFF7C3FEBDF80800BDF820
:1004A0000410644CA34512D101256DB2624C256045
:1004B000624D634C2560634D634C2560634D644C15
:1004C0002560644D644C2560079C039456E0634CA2
:1004D000A34512D101256DB2614C2560614D584C88
:1004E0002560614D584C2560604D594C2560604D2C
:1004F000594C2560069C039440E05E4CA34512D104
:1005000001256DB25C4C25605C4D4D4C25605C4D09
:100510004D4C25605B4D4E4C25605B4D4E4C25602F
:10052000069C03942AE0594CA34512D101256DB2D3
:10053000574C2560574D424C2560574D424C256025
:10054000564D434C2560564D434C2560069C039404
:1005500014E0544CA34511D101256DB2524C2560D5
:10056000524D374C2560524D374C2560514D384C1B
:100570002560514D384C2560069C0394ADF804105D
:10058000ADF80800304600F0D9F9BDF80800BDF814
:1005900004100BF1100500242C600BF110052C68E1
:1005A0000C432C600BF10C0500242C6018B140F4B6
:1005B000806080B2FFE70BF10C052C6804432C60CF
:1005C0000BF10C060125346865F34D3434600BF1F2
:1005D0000C060125346865F3C30434600BF10C0686
:1005E0000125346865F3820434600BF1140500249E
:1005F0002C60039D192465434FEA8C04B5FBF4F786
:100600006424B7FBF4F42601350964246C433C1BD5
:10061000240104F232056424B5FBF4F404F00F0461
:1006200046EA04040BF10805A4B22C60DDF800E0F2
:1006300009B0704700380140380342420509000004
:10064000B8000020FFFFFFFFBC000020FFFFFFFFFE
:10065000C0000020FFFFFFFFC40000200044004056
:10066000C4034242F5060000FFFFFFFFFFFFFFFF4C
:10067000FFFFFFFF00480040C8034242D9060000C8
:10068000FFFFFFFFFFFFFFFFFFFFFFFF004C0040EA
:10069000CC03424221090000FFFFFFFFFFFFFFFFE5
:1006A000FFFFFFFF00500040D0034242BD060000A4
:1006B000FFFFFFFFFFFFFFFFFFFFFFFF81B0CDF850
:1006C00000E081B20348FFF76BFEDDF800E001B007
:1006D000704700BF0050004081B0CDF800E081B20B
:1006E0000348FFF75DFEDDF800E001B0704700BF92
:1006F0000048004081B0CDF800E081B20348FFF728
:100700004FFEDDF800E001B0704700BF004400403C
:1007100081B0CDF800E08CB21546774B00EA0303B8
:100720001E461846FFF736FDB4F1FF0F0CD1734B90
:100730009D4203D14FF033333360D9E0422D03D1D2
:100740004FF044333360D3E04FF6FF739C4214D133
:100750006A4B9D4207D14FF033333360341D4FF065
:1007600033332360C4E0422D07D14FF0443333606C
:10077000341D4FF044332360BAE00021002005F01F
:1007800001030BB100211DE005F0020333B105F4B4
:10079000C0730BB1082100E0042113E005F004034D
:1007A00033B105F020030BB1042100E0002109E082
:1007B00005F0080333B105F020030BB10C2100E074
:1007C0000821FFE74E4B05EA03030BB1032009E0C4
:1007D00005F400730BB1022004E005F480630BB153
:1007E0000120FFE705F00C030BB10143FFE704F024
:1007F000FF039BB2002B3BD0376800201FFA84F820
:1008000032462E4608282CD24FF0010303FA00F49A
:1008100008EA0403A34222D185004FF00F03AB4046
:10082000DB4307EA030401FA05F344EA03031D4628
:1008300006F48173B3F5817F05D102F214044FF001
:1008400001038340236006F08203822B05D102F26C
:1008500010044FF00103834023602F46FFE7401C44
:10086000D0E717601FFA88F00F463146164602E0BF
:100870000F462946A0B2B0F1FF0F39D9331DD3F886
:1008800000800022082A30D202F208044FF001034F
:1008900003FA04F400EA0403A34224D195004FF0C4
:1008A0000F03AB40DB4308EA030807FA05F348EA05
:1008B000030801F48173B3F5817F07D106F21405B3
:1008C00002F208044FF00103A3402B6001F0820301
:1008D000822B07D106F2100502F208044FF0010343
:1008E000A3402B60FFE7521CCCE7331DC3F8008008
:1008F000DDF800E001B0704700FCFFFF14000800C5
:100900000008080081B0CDF800E081B20348FFF78D
:1009100047FDDDF800E001B0704700BF003801403E
:1009200081B0CDF800E081B20348FFF739FDDDF872
:1009300000E001B0704700BF004C004081B0CDF82E
:1009400000E0012252B23E490A6000F268010B68E1
:100950006FF0006103EA0102144603F00061C90E62
:100960000B4602F00041B1F1004F02D135490A684F
:1009700001E035490A6804F47021090C0E464FF66F
:10098000FF7104EA01010D4604F44011B1F5401F66
:100990000DD16FF0706102EA01010E462A490A6822
:1009A0006FF070610A4028490A60324616E004F48C
:1009B0008011B1F5801F09D14FF00301B140C94347
:1009C00002EA010141F070610A4607E0610D090188
:1009D00005FA01F1C9430A4042F070622BB1610D82
:1009E000090105FA01F10A43FFE704F00041B1F102
:1009F000004F02D113490A6001E013490A6040F236
:100A0000000A81464FEA8A0109EB01010968B1F148
:100A1000FF3F10D009F134014FEA8A03C918096871
:100A20000A4609EB0301096808461146FFF75AFC1C
:100A30000AF1010AE6E7DDF800E001B0704700BF07
:100A4000000342421C0001400400014081B0CDF887
:100A500000E081B20348FFF791FCDDF800E001B04F
:100A6000704700BF003C004081B0CDF800E0019D20
:100A70002C4610B408B493B28AB201460348FFF77B
:100A8000FBFC02B0DDF800E001B07047004400401C
:100A900083B0CDF800E08AB2014690B283B2421E24
:100AA00090B26BB10A78D4B2ADF804000291A0B252
:100AB000054C2468A0470299BDF80400491CEDE7E5
:100AC000DDF800E003B070479C00002081B0CDF855
:100AD00000E0019D2C4610B408B493B28AB20146DE
:100AE0000348FFF7C9FC02B0DDF800E001B0704731
:100AF0000038014083B0CDF800E08DF80400029189
:100B00000B4C0C4B1C600C4C0C4B1C60012464B255
:100B10000B4B1C601046FFF711FF029A9DF8041062
:100B20000848FFF75BFCDDF800E003B0704700BF4A
:100B300079010000B00000204D0A0000B400002040
:100B4000BC034242003C004081B0CDF800E0044AC2
:100B500089B2FFF7DDFDDDF800E001B0704700BFAE
:100B60001400080081B0CDF800E04FF0420289B2D5
:100B7000FFF7CEFDDDF800E001B0704781B0CDF8A1
:100B800000E0019D2C4610B408B493B28AB201462D
:100B90000348FFF771FC02B0DDF800E001B07047D8
:100BA0000048004081B006B54FEA40024FEA1262A9
:100BB0007F3A44BF4FF0000011E0D2F11F0209D983
:100BC0004FEA002141F00041D14000284CBF48428B
:100BD000084604E000284FF0004058BF401EBDE822
:100BE000064001B07047FFFF83B0CDF800E00291EE
:100BF00040F040028DF80420002100F08BF98DF8C0
:100C0000050098B100200C4C2468A04701AA0121DE
:100C10001046FFF73DFF9DF805100298FFF700FC16
:100C20000120054C2468A04700F016F89DF8050047
:100C3000DDF800E003B07047A8000020014908601B
:100C4000704700BFB081224201490860704700BF71
:100C5000B08122420204060840F27707C0F2000782
:100C60007F1EFDD100BF00BF00BF00BF00BF7047A7
:100C700000F230011C310A6803490A6000F20801E1
:100C80000A6802490A607047A4000020A8000020FA
:100C900001490860704700BF9C81214202680349F6
:100CA0000A60011D0A6802490A6070479C00002022
:100CB000A000002001490860704700BF98812142D0
:100CC00001490860704700BF9881224201490860CD
:100CD000704700BF9481224281B0CDF800E002B598
:100CE000002802D5FFF75EFF13E04FEA40014FEA0C
:100CF00011617F393CBF4FF000000AE0D1F11F01C4
:100D000005D34FEA002040F00040C84001E0002039
:100D1000401EBDE80240DDF800E001B07047FFFF73
:100D200081B0FAB590EA02064CBF4FF000464FF092
:100D30000006010243001B0E12BF41F000414FF0BC
:100D400000003BE0FF2B35D05FEA02245FEA42055A
:100D50005FEA156511BF44F000444FF0FF40304397
:100D60002CE0FF2D26D05B1B0020202764084908BB
:100D7000A14240EB000028BF091B7F1E04D00029C0
:100D800018BF4900F4D1B84010F0004F04BF400034
:100D9000B3F1010380302CBF5B1C40007F33DCBF0C
:100DA0004FF000000AE0FF2B04D2400A40EAC35093
:100DB000304303E0FF27FF0556EA0700BDE8FA408D
:100DC00001B0704781B0CDF800E00178CCB2A0B29C
:100DD000034C2468A0470020DDF800E001B0704714
:100DE0009800002081B00A4681B200208DB21146E1
:100DF000052805D20B1820221A70401CC0B2F7E754
:100E00000B1800221A70401EC0B20C180A23B5FB42
:100E1000F3F203FB125292B2303222700A22B5FB77
:100E2000F2F292B295B202B902E0401EC0B2ECE713
:100E300001B0704781B0FAB590EA02064CBF4FF09E
:100E400000464FF000064FEA00214FEA40031B0E18
:100E500012BF41F000414FF000002CE0FF2B26D0E4
:100E60004FEA02244FEA42052D0E12BF44F000441F
:100E70004FF000001FE0FF2D19D05B19A1FB0454B7
:100E8000002C5CBF64005B1E803424BF5B1C6408C4
:100E90007E3BDCBF4FF000000DE0FF2B07D24FEA96
:100EA000142030F4000040EAC350304303E0FF2731
:100EB000FF0546EA0700BDE8FA4001B07047FFFFB2
:100EC00083B0CDF800E0029100F0BF028DF804205D
:100ED000012100F01FF88DF8050098B100200C4C9E
:100EE0002468A04701AA01211046FFF7D1FD9DF813
:100EF00005100298FFF7CCFD0120054C2468A0479F
:100F0000FFF7AAFE9DF80500DDF800E003B070478A
:100F1000A800002039E009B9012045E0002043E0A5
:100F2000022041E002203FE009B903203CE000201C
:100F30003AE009B9032037E0002035E0022033E031
:100F400009B9022030E000202EE0102803D31F282A
:100F500001D8022028E0202803D3272801D8022026
:100F600022E0282803D32F2801D802201CE03028B3
:100F700003D3372801D8032016E0382803D33F28AD
:100F800001D8032010E000200EE00028C3D0012883
:100F9000C6D00228C6D00328C6D00428C9D0062847
:100FA000CCD00728CCD0D0E77047FFFF81B0002815
:100FB00008BF0FE002B54FF09E0202D4521E40005F
:100FC000FCD580302CBF521C4000400A40EAC25081
:100FD000BDE8024001B0704783B0CDF800E040F2B8
:100FE000000200208DF8080000208DF80900002084
:100FF0008DF80A008DF80B0002A8ADF80420014618
:101000000020FFF7F1FDBDF8042080B19DF8080035
:1010100000F08000C0B200B909E091B2521C92B257
:1010200017480088814201D3002024E0E4E70DF155
:10103000090001460420FFF7D7FD0DF109021078E1
:101040000102501C007841EA00000102901C007867
:1010500041EA0000024600F40000C10D0948017099
:10106000C8B2012803D1084802EA000003E0D143D6
:10107000054801EA0000DDF800E003B0704700BF5A
:101080009600002093000020FFFF7F0001490860C8
:10109000704700BF8801224201490860704700BFC5
:1010A0009001214281B0CDF800E0094902B440F23C
:1010B000000340F2000240F20001FFF7D5FC01B04E
:1010C000044A05490A600020DDF800E001B07047DD
:1010D000E01C0000F50600009800002001490860AF
:1010E000704700BFAC01224201490860704700BF51
:1010F000A801224201490860704700BFB481224222
:1011000081B0CDF800E0094902B440F2000340F29A
:10111000000240F20001FFF7D9FC01B0044A054982
:101120000A600020DDF800E001B070474C1D0000AF
:10113000050900009800002081B0CDF800E0011DF5
:101140000A680168C8B21146034AFFF7D3FC0020C1
:10115000DDF800E001B07047B81D000081B0CDF8A7
:1011600000E0A9E0012905D140F220016548FFF720
:10117000F9FC04E040F220016248FFF7E5FCBBE027
:10118000012905D140F208015F48FFF7EBFC04E0BC
:1011900040F208015C48FFF7D7FCADE0012905D11A
:1011A00044F200015948FFF7DDFC04E044F200017D
:1011B0005648FFF7C9FC9FE0012905D140F20041E4
:1011C0005148FFF7CFFC04E040F200414E48FFF7E2
:1011D000BBFC91E0012905D140F600014A48FFF728
:1011E000C1FC04E040F600014748FFF7ADFC83E096
:1011F000012905D141F200014348FFF7B3FC04E0A7
:1012000041F200014048FFF79FFC75E0012905D13C
:1012100041F200013D48FFF7A5FC04E041F2000166
:101220003A48FFF791FC67E0012905D140F600013B
:101230003648FFF797FC04E040F600013348FFF71B
:1012400083FC59E0012905D140F240012F48FFF706
:1012500089FC04E040F240012C48FFF775FC4BE0AC
:10126000012905D140F220012848FFF77BFC04E06A
:1012700040F220012548FFF767FC3DE0012905D138
:1012800040F240012248FFF76DFC04E040F24001CB
:101290001F48FFF759FC2FE0012905D140F28001DA
:1012A0001B48FFF75FFC04E040F280011848FFF79D
:1012B0004BFC21E0012020E000283FF453AF01283F
:1012C0003FF45EAF02283FF469AF03283FF474AFE8
:1012D00004283FF47FAF05283FF48AAF06283FF487
:1012E00095AF0728A0D00828ACD00928B8D00A2884
:1012F000C4D00B28D0D0DDE70020DDF800E001B03D
:10130000704700BF00080140001001400014014078
:10131000000C014081B0CDF800E0A9E0012905D121
:1013200040F210016548FFF71DFC04E040F2100197
:101330006248FFF709FCBBE0012905D140F2040136
:101340005F48FFF70FFC04E040F204015C48FFF740
:10135000FBFBADE0012905D142F200015948FFF73E
:1013600001FC04E042F200015648FFF7EDFB9FE06C
:10137000012905D140F200415148FFF7F3FB04E099
:1013800040F200414E48FFF7DFFB91E0012905D113
:1013900040F600014A48FFF7E5FB04E040F6000193
:1013A0004748FFF7D1FB83E0012905D141F2000155
:1013B0004348FFF7D7FB04E041F200014048FFF744
:1013C000C3FB75E0012905D140F201013B48FFF75D
:1013D000C9FB04E040F201013848FFF7B5FB67E0C4
:1013E000012905D140F200413648FFF7BBFB04E07C
:1013F00040F200413348FFF7A7FB59E0012905D12E
:1014000040F200212F48FFF7ADFB04E040F200213D
:101410002C48FFF799FB4BE0012905D140F2001160
:101420002848FFF79FFB04E040F200112548FFF732
:101430008BFB3DE0012905D140F240012248FFF736
:1014400091FB04E040F240011F48FFF77DFB2FE0D5
:10145000012905D140F280011B48FFF783FB04E01E
:1014600040F280011848FFF76FFB21E0012020E0E7
:1014700000283FF453AF01283FF45EAF02283FF449
:1014800069AF03283FF474AF04283FF47FAF052809
:101490003FF48AAF06283FF495AF0728A0D008286C
:1014A000ACD00928B8D00A28C4D00B28D0D0DDE7AA
:1014B0000020DDF800E001B0704700BF00080140E7
:1014C0000010014000140140000C014081B0CDF833
:1014D00000E0094902B440F2000340F2000240F289
:1014E0000001FFF7C1FA01B0044A05490A60002073
:1014F000DDF800E001B07047E01C0000F5060000D8
:101500009800002081B0CDF800E0094902B440F213
:10151000000340F2000240F20001FFF72FFB01B090
:10152000044A05490A600020DDF800E001B0704778
:10153000741C0000D90600009800002081B0CDF88E
:1015400000E0011D0A680168C8B21146034AFFF7AE
:10155000D1FA0020DDF800E001B07047B81D0000AE
:1015600001490860704700BFB0012242014908608C
:10157000704700BF8C01224201490860704700BFDC
:101580009401214201490860704700BF9C812142BB
:1015900001490860704700BFB881224201490860D4
:1015A000704700BFB001224201490860704700BF88
:1015B000AC01224201490860704700BFA8012242E5
:1015C00001490860704700BF9881214201490860C5
:1015D000704700BFA481224201490860704700BFE4
:1015E000A081224201490860704700BF800121426A
:1015F00001490860704700BFA881224283B0CDF83E
:1016000000E0024610460D228DF808200A228DF8CF
:1016100009201FE0FFF7D6FB23E002782AB10190F2
:10162000FFF7D0FB0198401CF7E71AE002782AB1D7
:101630000190FFF7C7FB0198401CF7E702AA10468C
:10164000FFF7C0FB0DF109021046FFF7BBFB08E0F6
:10165000062007E00029DDD00129DED00229E5D0EF
:10166000F6E70020DDF800E003B0704781B0CDF868
:1016700000E08B4609E05846FFF75EFD0AE0584659
:10168000FFF75CFF06E0012004E00028F3D001280A
:10169000F5D0F8E7DDF800E001B0704781B0CDF893
:1016A00000E00E46002183B2002805DA0121404205
:1016B00080B280B28FB201E098B28FB23146FFF7AC
:1016C00091FB06213446B8B2002908D963184A1E96
:1016D00092B2A21812781A70491E89B2F4E7202239
:1016E000227070B1002081B2204642181278202A60
:1016F00002D1491C89B2F8E74A1E92B283182D2202
:101700001A70DDF800E001B07047FFFF81B0CDF83E
:1017100000E05FFA81F95FFA82FA0FE05FFA8AF17E
:101720005FFA89F0FFF7F6FD0DE05FFA8AF15FFAE4
:1017300089F0FFF713FD06E0012004E00028EDD05A
:101740000128F2D0F8E7DDF800E001B07047FFFFB4
:1017500081B0CDF800E011E00846FFF7D3FE16E0B7
:101760000846FFF7B3FE12E00846FFF7C9FC0EE09B
:101770000846FFF797FC0AE0012008E00028EBD0BC
:101780000128EDD02028EFD03028F1D0F4E7DDF8A3
:1017900000E001B07047FFFF81B0CDF800E00346E4
:1017A0000846FFF77BFA1846FFF762FA0120064C5D
:1017B0002468A047FFF750FA6423044A1380DDF839
:1017C00000E001B0704700BFA80000209600002094
:1017D00082B0CDF800E0C4B200228DF804200022CF
:1017E0008DF8052001AB0A0A1A705B1C01F0FF029C
:1017F0001A700121E0B2FFF78DFB022804D101AA83
:101800001146E0B2FFF75CFBDDF800E002B0704784
:1018100082B0CDF800E00190FFF7DEFBFFF7C6FBDA
:10182000019AFFF707FB064AFFF77AFA054AFFF726
:1018300001FBFFF751FA80B2DDF800E002B070471B
:10184000FEFFFF4A00007A4481B01CF8019B0BF8B0
:10185000019BBBEB0A0FF8D101B0704781B015486E
:10186000006840F00101134801601349134801600A
:1018700010480168124801400E4801600D48016897
:101880006FF4802001400B4801600C4801686FF440
:10189000FE00014009480160064801686FF0A05051
:1018A0000140044801604FF000010648016001B0AA
:1018B000704700BF001002400000FFF0041002401B
:1018C000FFFFF6FE2C10024081B0CDF800E0174972
:1018D0001748FFF761FF44F67F77C0F2120700BF99
:1018E00000BF7F1EFDD100BF00BF00BF48F2010155
:1018F0001020FFF76DFF4AF200010120FFF768FF9B
:1019000040F200010220FFF763FF40F600010620CD
:10191000FFF75EFF41F220312020FFF759FF002141
:1019200004480180DDF800E001B070479C1E000013
:10193000241E00009400002081B0CDF800E01D4876
:10194000FFF766FF1C4908801C480078012811D168
:10195000194800881A49FFF7A1FE1A480121FFF72C
:101960004DFE01211648FFF749FE17480221FFF7F7
:1019700045FE10E0104800881149FFF78FFE13481C
:101980000121FFF73BFE01210D48FFF737FE10480C
:101990000221FFF733FE41F6FF27C0F2B70700BF71
:1019A00000BF7F1EFDD100BF00BF00BFDDF800E01B
:1019B00001B07047000020409400002093000020F8
:1019C0000000002064000020770000207B00002041
:1019D0008F00002081B04FF000094FF0000CBDEBEC
:1019E0000A0F04DCBDEB0B0F01DBD446EA464BF8D3
:1019F000049BBBEB0A0FFAD1BCEB0A0F05DDE246F4
:101A0000D9F800B00BF1040BF1E701B07047FFFF0C
:101A100081B0CDF800E0002202210020FFF776FE21
:101A2000012207210020FFF771FE0C48014600202B
:101A3000FFF71CFE42F280513020FFF789FE44F68A
:101A40007F77C0F2120700BF00BF7F1EFDD100BF2D
:101A500000BF00BFDDF800E001B07047941E000039
:101A600081B002490248016001B07047401901008D
:101A7000AC00002081B0FEE701B0704700F00EF826
:101A800000F050FAFFF7ECFF00F00CFAFFF7C0FF90
:101A9000FFF71AFFFFF750FFFCE7FEE781B0CDF834
:101AA00000E0464A464B474C47494BF6803081425E
:101AB00006D94648006840F002014448016011E040
:101AC00045F6C050814206D94048006840F0010107
:101AD0003E48016006E03D4801686FF007000140A4
:101AE0003A480160FFF7BAFE39480360394804609C
:101AF000394802EA00013948016002F0010040B1B2
:101B000019463648006800F00200002800D1F8E7C6
:101B100000E0194602F4803040B10B462F480068BF
:101B200000F40030002800D1F8E700E00B4602F096
:101B3000805068B12948006840F080512748016012
:101B40002648006800F00050002800D1F8E7FFE7C1
:101B500002F0806078B12148006840F080611F4841
:101B6000016011461A461D48006800F00060002818
:101B700000D1F8E701E011461A4601F0807070B11B
:101B80001648006840F080711448016011461348FF
:101B9000006800F0007000B9F9E70A46FFE70C485A
:101BA000006800F00C01900000F00C00814200D0B1
:101BB000F5E7DDF800E001B0704700BF81000105E6
:101BC00002841D004406010040190100002002406B
:101BD000041002402C100240FFFF0F0000100240D2
:101BE00000000000000000000000000000000000F5
:101BF00000000000000000000000000000000000E5
:101C000000000000000000000000000000000000D4
:101C100000000000000000000000000000000000C4
:101C200000000000000000000000000000000000B4
:101C300000000000000000000000000000000000A4
:101C40000000000043757272656E7420566F6C74EC
:101C5000616765203A2000206D56004375727265F9
:101C60006E7420566F6C74616765203A202D0020D9
:101C70006D5600FF3800000039000000FFFFFFFF35
:101C80000000000000000000000000000000000054
:101C90000000000000000000000000000000000044
:101CA00000000000000000001808000018000000FC
:101CB0000000000000000000000000000000000024
:101CC0000000000000000000000000000000000014
:101CD00000000000000000000000000030001408B8
:101CE0003500000036000000FFFFFFFF000000008D
:101CF00000000000000000000000000000000000E4
:101D000000000000000000000000000000000000D3
:101D1000000000001808000018000000000000008B
:101D200000000000000000000000000000000000B3
:101D300000000000000000000000000000000000A3
:101D4000000000000000000008000008090000007A
:101D50000A000000FFFFFFFF00000000000000007D
:101D60000000000000000000000000000000000073
:101D70000000000000000000000000000000000063
:101D8000180800001800000000000000000000001B
:101D90000000000000000000000000000000000043
:101DA0000000000000000000000000000000000033
:101DB00000000000040000002A0000002B000000CA
:101DC0002C000000FFFFFFFF0000000000000000EB
:101DD0000000000000000000000000000000000003
:101DE00000000000000000000000000018080000D3
:101DF00018080000180800000000000000000000A3
:101E000000000000000000000000000000000000D2
:101E100000000000000000000000000000000000C2
:101E200000112008991000008D100000F51000002E
:101E3000E9100000DD10000061150000E51500004C
:101E4000F1150000CD150000D9150000C1150000E6
:101E500085150000FFFFFFFFFFFFFFFFFFFFFFFFF4
:101E6000FFFFFFFFFFFFFFFFFFFFFFFFFFFFFFFF82
:101E7000FFFFFFFFFFFFFFFFFFFFFFFFFFFFFFFF72
:101E8000FFFFFFFF00000000010203040102030442
:101E90000607080907000000070300004D0A0000BC
:101EA0007901000000B5DFF814B0DFF814A0DFF806
:101EB00014C0FFF7C9FC00BD704700BF0000002040
:101EC00093000020E01B0000FFFFFFFFFFFFFFFF6C
:101ED000FFFFFFFFFFFFFFFFFFFFFFFFFFFFFFFF12
:101EE000FFFFFFFFFFFFFFFFFFFFFFFFFFFFFFFF02
:101EF000FFFFFFFFFFFFFFFFFFFFFFFFFFFFFFFFF2
:101F0000FFFFFFFFFFFFFFFFFFFFFFFFFFFFFFFFE1
:101F1000FFFFFFFFFFFFFFFFFFFFFFFFFFFFFFFFD1
:101F2000FFFFFFFF00B5DFF810B0DFF810A0FFF7EC
:101F300051FD00BD704700BF00000020C800002018
:00000001FF
